:0300000002083EB5
:0C083E00787FE4F6D8FD7581460208853D
:10091D00042500000000044300000000042900002D
:10092D000000042100000000043F00000000043519
:10093D0000000000043900000000042D000000003C
:10094D00013301013401013D01013E01C180C1812D
:0E095D00C182C183C184C18501310001320015
:1009AF00E4FE7F0474252FF8E4F674432FF8E4F681
:1009BF0074292FF8E4F674212FF8E4F6743F2FF81A
:1009CF00E4F674352FF8E4F6EF1F70011EEF4E704A
:0D09DF00D3753301753401753D01753E017E
:0109EC0022E8
:100AAC00758901758C3C758AB0D2A9D2AFD28CE411
:030ABC00F53122EF
:100A5200AC06AD07D3ED9400EC6480948040147A28
:100A6200007B78EB1B70011AEB4A70F7ED1D70E406
:030A72001C80E104
:010A7500225E
:100A7600E4FE7F787C037DE8ED1D70011CED4C7073
:0A0A8600F7EF1F70011EEF4E70EA3B
:010A90002243
:0D0AD0007E097F60EF1F70011EEF4E70F772
:010ADD0022F6
:100A9100E4FE7F787C017DF4ED1D70011CED4C704E
:0A0AA100F7EF1F70011EEF4E70EA20
:010AAB002228
:100A2500E4F50DFDFC7590F0E59054F064F0601A66
:100A3500120AD0E59054F064F0600FE59064F0FD83
:0C0A450075900FE590640F4DFF227F00BC
:010A51002282
:0909ED00EF5DFD7B007A00793F0B
:0609F6008B158A1689171B
:1009FC00E4FEF5187F04AB15AA16A91774FF2FF5A2
:100A0C008274FF3EF5831208CA2518F518EF1F7083
:080A1C00011EEF4E70E0AF185F
:010A240022AF
:03076400120AD0A6
:10076700120A25EF1208F7079C1107E4120826144E
:1007770008321807AA2107EF22082E24083A28076B
:10078700C341080542082A4407D981081B82083655
:10079700840000083DE533D39401500302083D75FA
:1007A700430122E533D39402400475440122E53323
:1007B700C39402400302083D75260122E533D39412
:1007C70003400475450122E533C394035068752738
:1007D7000122E533C39404505D75280122E534D323
:1007E7009401405275210122E534D39402400475E7
:1007F700220122E534C39402503C752A0122E534D4
:10080700D39403400475230122E534C3940350268F
:10081700752B0122E534C39404501B752C012275F6
:100827003F01227536012275400122753701227575
:06083700410122753801A9
:01083D002298
:050452002533F8E4F67B
:10045700E4F513F514E53324FE60101460131460FB
:100467001624037016C280C2818010D280C2818098
:100477000AC280D2818004D280D281E53424FE6012
:100487001014601314601624037016C282C283808E
:1004970010D282C283800AC282D2838004D282D2DF
:1004A70083E525454324FFB392A0E526454424FF71
:1004B700B392A1E527454524FFB392A2E528454617
:1004C70024FFB392A3E529452124FFB392A4E52A8B
:1004D700452224FFB392A5E52B452324FFB392A61B
:1004E700E52C452424FFB392A7E53F24FFB392B040
:1004F700E54024FFB392B1E54124FFB392B2E5365C
:1005070024FFB392B3E53724FFB392B4E53824FF51
:10051700B392B57B007A0079251209F6EF7003D301
:100527008001C3B392847B007A0079431209F6EF06
:100537007003D38001C3B392861209F0EF7003D31F
:100547008001C3B392857B007A0079351209F6EFF3
:100557007003D38001C3B39287A204B0025004C2D0
:10056700B68002D2B6A205B0035003C2B722D2B7F3
:010577002261
:03000B0002096C7B
:10096C00C0E0C083C082C0D075D000C000C001C040
:10097C0002C003C006C007E531D394145010758C27
:10098C003C758AB00531E531B41403120457D00715
:10099C00D006D003D002D001D000D0D0D082D083EA
:0309AC00D0E03266
:09023800E53D653360030202C6D6
:10024100F509F50A300040743E2533F8E664017083
:1002510074D204C20274242533F8E4F6743E2533C3
:10026100F8E4F6F509750A46120764120457E50A1F
:10027100150A70021509D3E50A9400E50964809412
:100281008050E5C204803E74342533F8E664017081
:1002910034D204C20274422533F8E4F674342533AF
:1002A100F8E4F6F509750A46120764120457E50ADF
:1002B100150A70021509D3E50A9400E509648094D2
:0502C1008050E5C204BD
:0A02C600E53DD39533500302038F8A
:1002D000E4F509F50AF50BF50CD200C202C204F5EB
:1002E00009750A23120AD0120767120457E50A1586
:1002F0000A70021509D3E50A9400E5096480948028
:1003000050E2053374242533F8E4F6743E120452A7
:10031000E533653D6003020451D204F50B750C46CC
:10032000120AD0120767120457E50C150C7002155B
:100330000BD3E50C9400E50B6480948050E2C2047A
:100340007B007A0079431209F6EF70047D01800288
:100350007D007B007A0079251209F6EF70047F0199
:1003600080027F001209EDEF70047F0180027F00A0
:10037000EF5DFD7B007A0079351209F6EF70047F9E
:0F0380000180027F00EF5D7003020451D2022260
:0A038F00E53DC3953340030204511D
:10039900E4F509F50AF50BF50CC200C202C204F531
:1003A90009750A23120AD0120767120457E50A15BC
:1003B9000A70021509D3E50A9400E509648094805E
:1003C90050E2153374422533F8E4F67434120452BA
:1003D900E533653D7072D204F50B750C46120AD0EF
:1003E900120767120457E50C150C7002150BD3E5BB
:1003F9000C9400E50B6480948050E2C2047B007A7F
:100409000079431209F6EF70047D0180027D007BBB
:10041900007A0079251209F6EF70047F0180027FC6
:10042900001209EDEF70047F0180027F00EF5DFD8E
:100439007B007A0079351209F6EF70047F0180029A
:080449007F00EF5D6002D202AA
:010451002288
:0605780030025E30002D90
:10057E00853308E508D39400401474342508F8E652
:10058E00FF743E2508F8E64F7004150880E5E5086F
:0B059E00D394004036E53E6508603055
:0205A900802BA5
:1005AB00853308E508C39405501474342508F8E620
:1005BB00FF743E2508F8E64F7004050880E5E50852
:0E05CB00C394055009E53E6508600385083DB0
:0305D900300044AB
:1005DC00853308E508C39405502DE53EB508047F26
:1005EC000180027F00A200E4335F70047F0180026F
:1005FC007F00743E2508F8E65FFF74242508F8E6B2
:10060C004F7004050880CCE508C39405500280485F
:02061C00C2001A
:02061E00804B0F
:10062000853308E508D394004033E53EB508047FE0
:100630000180027F002000047E0180027E00EF5EC8
:1006400070047F0180027F0074342508F8E65FFFA4
:1006500074422508F8E64F7004150880C6E508D3F3
:0B0660009400400585083D8002D20098
:03066B0002023850
:09000E00E53E653460030200A226
:10001700F509F50A300143743E2534F8E6640170AA
:100027007AD205C20374282534F8E4F6743E2534E1
:10003700F8E4F6F509750A46120AD01207671204A2
:1000470057E50A150A70021509D3E50A9400E50970
:100057006480948050E2C205804174342534F8E608
:1000670064017037D205C20374202534F8E4F674AE
:10007700342534F8E4F6F509750A46120AD0120752
:1000870067120457E50A150A70021509D3E50A94A1
:0B00970000E5096480948050E2C2057F
:0A00A200E53ED395345003020170CF
:1000AC00E4F509F50AF50BF50CD201C203C205F50E
:1000BC0009750A23120AD0120767120457E50A15AC
:1000CC000A70021509D3E50A9400E509648094804E
:1000DC0050E2053474282534F8E4F6743E2534F8DF
:1000EC00E4F6120457E534653E6003020237D2058C
:1000FC00F50B750C46120AD0120767120457E50C63
:10010C00150C7002150BD3E50C9400E50B64809470
:10011C008050E2C2057B007A0079211209F6EF705B
:10012C00047D0180027D007B007A0079291209F69A
:10013C00EF70047F0180027F001209EDEF70047FE5
:10014C000180027F00EF5DFD7B007A00793512099A
:10015C00F6EF70047F0180027F00EF5D70030202F6
:04016C0037D2032261
:0A017000E53EC39534400302023758
:10017A00E4F509F50AF50BF50CC201C203C205F54F
:10018A0009750A23120AD0120767120457E50A15DD
:10019A000A70021509D3E50A9400E509648094807F
:1001AA0050E2153474202534F8E4F674342534F812
:1001BA00E4F6120457E534653E7072D205F50B7504
:1001CA000C46120AD0120767120457E50C150C7078
:1001DA0002150BD3E50C9400E50B6480948050E281
:1001EA00C2057B007A0079211209F6EF70047D01BD
:1001FA0080027D007B007A0079291209F6EF7004EB
:10020A007F0180027F001209EDEF70047F018002F6
:10021A007F00EF5DFD7B007A0079351209F6EF70F9
:0D022A00047F0180027F00EF5D6002D203BF
:0102370022A4
:06066E0030035E30012D97
:10067400853408E508D39400401474342508F8E65A
:10068400FF743E2508F8E64F7004150880E5E50878
:0B069400D394004036E53D650860305F
:02069F00802BAE
:1006A100853408E508C39405501474342508F8E628
:1006B100FF743E2508F8E64F7004050880E5E5085B
:0E06C100C394055009E53D6508600385083EB9
:0306CF00300144B3
:1006D200853408E508C39405502DE53DB508047F2F
:1006E2000180027F00A201E4335F70047F01800277
:1006F2007F00743E2508F8E65FFF74282508F8E6B7
:100702004F7004050880CCE508C394055002804868
:02071200C20122
:02071400804B18
:10071600853408E508D394004033E53DB508047FE9
:100726000180027F002001047E0180027E00EF5ED0
:1007360070047F0180027F0074342508F8E65FFFAD
:1007460074202508F8E64F7004150880C6E508D31E
:0B0756009400400585083E8002D2019F
:0307610002000E85
:0600030012057802066EF2
:100ABF007590F012076712045712057812066E80B0
:010ACF00EF37
:10084A00020ABFE493A3F8E493A34003F68001F2FB
:10085A0008DFF48029E493A3F85407240CC8C333AF
:10086A00C4540F4420C8834004F456800146F6DF7E
:10087A00E4800B010204081020408090091DE47EE8
:10088A00019360BCA3FF543F30E509541FFEE49373
:10089A00A360010ECF54C025E060A840B8E493A33A
:1008AA00FAE493A3F8E493A3C8C582C8CAC583CA65
:1008BA00F0A3C8C582C8CAC583CADFE9DEE780BE1D
:01096B00008B
:1008CA00BB010CE58229F582E5833AF583E02250E3
:1008DA0006E92582F8E622BBFE06E92582F8E2222D
:0D08EA00E58229F582E5833AF583E4932247
:1008F700D083D082F8E4937012740193700DA3A390
:1009070093F8740193F5828883E4737402936860A3
:06091700EFA3A3A380DFA3
:00000001FF
